:10002600FFFDFBF9F7F5F3F1EFEDEBE9E7E5E3E1CA
:10003600DFDDDBD9D7D5D3D1CFCDCBC9C7C5C3C1BA
:10004600BFBDBBB9B7B5B3B1AFADABA9A7A5A3A1AA
:100056009F9D9B99979593918F8D8B89878583819A
:100066007F7D7B79777573716F6D6B69676563618A
:100076005F5D5B59575553514F4D4B49474543417A
:100086003F3D3B39373533312F2D2B29272523216A
:100096001F1D1B19171513110F0D0B09070503015A
:1000A600FBFAF9F8F7F5F3F1EFEDEBE9E7E5E3E154
:1000B600DFDDDBD9D7D5D3D1CFCDCBC9C7C5C3C13A
:1000C600BFBDBBB9B7B5B3B1AFADABA9A7A5A3A12A
:1000D6009F9D9B99979593918F8D8B89878583811A
:1000E6007F7D7B79777573716F6D6B69676563610A
:1000F6005F5D5B59575553514F4D4B4947454341FA
:100106003F3D3B39373533312F2D2B2927252321E9
:100116001F1D1B19171513110F0D0B0907050301D9
:1001260004000408041004180420042804300438C9
:1001360004400448045004580460046804700478B9
:10014600048004880490049804A004A804B004B8A9
:1001560004C004C804D004D804E004E804F004F899
:100166000500050805100518052005280530053881
:100176000540054805500558056005680570057871
:10018600058005880590059805A005A805B005B861
:1001960005C005C805D005D805E005E805F005F851
:1001A6000600060806100618062006280630063839
:1001B6000640064806500658066006680670067829
:1001C600068006880690069806A006A806B006B819
:1001D60006C006C806D006D806E006E806F006F809
:1001E60007000708071007180720072807300738F1
:1001F60007400748075007580760076807700778E1
:10020600078007880790079807A007A807B007B8D0
:1002160007C007C807D007D807E007E807F007F8C0
:1002260008000808081008180820082808300838A8
:100236000840084808500858086008680870087898
:10024600088008880890089808A008A808B008B888
:1002560008C008C808D008D808E008E808F008F878
:100266000900090809100918092009280930093860
:100276000940094809500958096009680970097850
:10028600098009880990099809A009A809B009B840
:1002960009C009C809D009D809E009E809F009F830
:1002A6000A000A080A100A180A200A280A300A3818
:1002B6000A400A480A500A580A600A680A700A7808
:1002C6000A800A880A900A980AA00AA80AB00AB8F8
:1002D6000AC00AC80AD00AD80AE00AE80AF00AF8E8
:1002E6000B000B080B100B180B200B280B300B38D0
:1002F6000B400B480B500B580B600B680B700B78C0
:100306000B800B880B900B980BA00BA80BB00BB8AF
:100316000BC00BC80BD00BD80BE00BE80BF00BF89F
:1003260000172737475767778797A7B7C7D7E7FFD6
:100CBA00C115C119C11CC11AC117C118C110C11F60
:100CCA00C11DC111C11EC113C116C112C11BC1145C
:100CDA0004617589022D013130013037015E30011E
:100CEA005D30017037016F26016530016030016E99
:100CFA0030016D30012D30012C30016C30016B3721
:100D0A00013730013630015337015146013A30017B
:100D1A003930012E30015C3001333001403001435B
:100D2A0030014430014530014830014A30014B302E
:100D3A00014D30014F300155300156300158300114
:100D4A005930015A30015B30013F300142300147CE
:040D5A0030013530FF
:100FB5001211E712122F12121F759F07D2B5C2B573
:100FC500D21512111CE4F590C2A2788204F2121116
:100FD5001C120F2D120733120F2D120618120F2D8A
:100FE500120A34120F2D121029120F2D120E031290
:100FF5000F2D120336120F2D12084C120F2D120B46
:1010050022120F2D120940120F2D121084120F2DCE
:101015001210D0120F2D120BF5120F2D120D5F129B
:041025000F2D80AA61
:041179007F647E0011
:10117D00E4FDFCD3ED9FEC9E5017E4FBFA0BBB0096
:10118D00010AE4B503F7EAB401F30DBD00010C80CB
:01119D00E26F
:01119E00222E
:1011E700759840759E84759D01D29CD2ACD2AFC2D2
:0411F70098C29922DF
:10121F0075AE5F75B3FF75B4FF75B1FF75B2FF2281
:10122F0075EF8075FDFFE4F5F9F5FAF5FBF5FC2296
:10111C00301532E4F53275B1FF75B2FFF5F975FB98
:10112C0087788074FFF2087407F2C2B2C2B4D2B4EA
:10113C00D2B27802E2F56608E2F56708E2F56808D3
:06114C00E2F569C2152264
:10102900301A5785316C85306B85312F1211FB854C
:101039002F3185302F1211FB852F30E531C454F043
:10104900F53153300F4530F52890032693F5FBE52C
:101059002EB4312475992312117375995C12117389
:10106900856C99121173856B9912117375990D120B
:0B107900117375990A121173C21A223C
:100F2D00201803020FB4857053856F5185702F12F1
:100F3D0011FB852F70856F2F1211FB852F6FE570BB
:100F4D00C454F0F570536F0F456FF55F75F002A443
:100F5D002426F582E5F03401F583E493F52474013C
:100F6D0093F525F546E524540FF5387880E546F2DE
:100F7D0008E538F2C2B2C2B4D2B4D2B2E52EB43161
:100F8D0024759923121173759960121173855399F4
:100F9D0012117385519912117375990D1211737583
:080FAD00990A121173C2182207
:100E03007835E2F5206552604B852052E552C45493
:100E13000FF565E552540FF56085653412120D85A3
:100E2300346585603412120D853460E55CB430247A
:100E33007599281211737599581211738565991252
:100E4300117385609912117375990D121173759948
:100E53000A121173301F4675992812117375995828
:100E63001211738565991211738560991211737547
:100E7300990D12117375990A121173C21FE52EB4DD
:100E8300311B121179759928121173759958121122
:0E0E93007375990D12117375990A121173225D
:10119F00E55CB4301E759924121173856A9912118A
:1011AF007385279912117375990D12117375990A19
:0411BF001211732274
:10084C00E4FFFE7830E2F5206320FF8520210FBF06
:10085C0000010EEF64094E70EAE520653B7003025F
:10086C00093FE53B6220E520600385213B30001EFB
:10087C0030080C756A4175273175403112119F2073
:10088C00080C756A4175273075403012119F300184
:10089C001E30090C756A4275273175433112119F50
:1008AC0020090C756A4275273075433012119F3040
:1008BC00021E300A0C756A437527317544311211CA
:1008CC009F200A0C756A4375273075443012119FAE
:1008DC0030031E300B0C756A447527317545311287
:1008EC00119F200B0C756A44752730754530121119
:1008FC009F30041E300C0C756A45752731754831D4
:10090C0012119F200C0C756A4575273075483012F2
:10091C00119F30051E300D0C756A46752731754ACE
:10092C003112119F200D0C756A46752730754A30AF
:03093C0012119FF6
:01093F002295
:100B2200E4FFFE7831E2F5206320FF8520210FBF2C
:100B320000010EEF64094E70EAE520653C70030285
:100B42000BF4E53C6220E520600385213C30001E69
:100B520030080C756A47752731754B3112119F2089
:100B6200080C756A47752730754B3012119F30019A
:100B72001E30090C756A48752731754D3112119F67
:100B820020090C756A48752730754D3012119F3057
:100B9200021E300A0C756A49752731754F311211E0
:100BA2009F200A0C756A49752730754F3012119FC4
:100BB20030031E300B0C756A4A7527317555311298
:100BC200119F200B0C756A4A75273075553012112A
:100BD2009F30041E300C0C756A4B752731755631E7
:100BE20012119F200C0C756A4B7527307556301206
:020BF200119F51
:010BF40022DE
:10094000E4FFFE7832E2F5206320FF8520210FBF0F
:1009500000010EEF64094E70EAE520653D70030268
:100960000A33E53D6220E520600385213D30001E0D
:1009700030080C756A4C75273175583112119F205B
:10098000080C756A4C75273075583012119F30016C
:100990001E30090C756A4D75273175593112119F3A
:1009A00020090C756A4D75273075593012119F302A
:1009B000021E300A0C756A4E752731755A311211B4
:1009C0009F200A0C756A4E752730755A3012119F98
:1009D00030031E300B0C756A4F752731755B311271
:1009E000119F200B0C756A4F752730755B30121103
:1009F0009F30041E300C0C756A50752731753F31DD
:100A000012119F200C0C756A50752730753F3012FB
:100A1000119F30051E300D0C756A517527317542D6
:100A20003112119F200D0C756A51752730754230B7
:030A300012119F01
:010A330022A0
:10108400E4FFFE7833E2F5206320FF8520210FBFC3
:1010940000010EEF64094E70EAE520653E602CE520
:1010A4003E6220E520600385213E30001E30080C9E
:1010B400756A5275273175473112119F20080C75D6
:0B10C4006A5275273075473012119FEB
:0110CF0022FE
:1010D000E4FFFE7834E2F5206320FF8520210FBF76
:1010E00000010EEF64094E70EAE5206541602CE5D1
:1010F000416220E520600385214130001E30080C4C
:10110000756A5375273175353112119F20080C759A
:0B1110006A5375273075353012119FAF
:01111B0022B1
:10115200759928121173759956121173856E991229
:101162001173856D9912117375990D121173759919
:011172000A72
:061173003099FDC2992233
:03124D001212502A
:061250003098FDC2982257
:1011FB00E52FC39441500474D0800274C9252FF598
:02120B002F2290
:10120D00E534C3940A50047430800274372534F5E4
:02121D00342279
:09123F0012124812124812124862
:05124800D2A0C2A022AB
:10033600E4F510F50FF50EF50DF52AF50CF50BF5B0
:100346000AF509E4FF7E01FDFCAB0CAA0BA90AA87D
:1003560009C31211C3507AD2A0D2A1C2A130A3FD03
:1003660012123FE4F520121248A2A3920712124875
:10037600A2A39206121248A2A39205121248A2A3A1
:100386009204121248A2A39203121248A2A3920246
:10039600121248A2A39201121248A2A392001212AC
:1003A6003FFCFDFEE5102520F510EE350FF50FEDAF
:1003B600350EF50EEC350DF50DE50C2401F50CE4C6
:1003C600350BF50BE4350AF50AE43509F5090203A0
:1003D60049AF10AE0FAD0EAC0D78081211D48F10C8
:1003E6008E0F8D0E8C0D8F20852029E529652670B0
:1003F600030204B6852921C3E5219526F521200FA0
:1004060002F52A300F086321FF052185212AE52AF6
:10041600D3940050030204B3E5336430600302044E
:10042600B3E52978827003F280037401F2E529C3EB
:100436009480500FC2A2E52990002693F5B1E550AD
:10044600F4F5B2E526C394805026E529947F402032
:100456007882E4F2E52990002693F5B1E550F4F5AB
:10046600B27F197E0012117DD2A212117D7401F2A3
:10047600E520D3947F400FD2A2E52990002693F57C
:10048600B1E550F4F5B2E529C4540FF56EE52954EB
:100496000FF56D856E3412120D85346E856D34122E
:1004A600120D85346DE55CB4300312115285292690
:1004B600301D19121152C21DE52EB4310F121179D9
:0C04C60075992812117375995612116770
:0104D2002207
:10073300E533643160030207ED2017030207ED85FB
:100743004E2D854C2C854E2F1211FB852F4E854C3B
:100753002F1211FB852F4CE54EC454F0F54E534C2C
:100763000F454CF53278827003F280037401F2E591
:1007730032C39480500FC2A2E53290002693F5B1A4
:10078300E550F4F5B2E554C394805026E532947FE6
:1007930040207882E4F2E53290002693F5B1E550EB
:1007A300F4F5B27F197E0012117DD2A212117D746D
:1007B30001F2E532D3947F400FD2A2E532900026B6
:1007C30093F5B1E550F4F5B2853254E52EB4311802
:1007D30075992312117375995A121173852D9912F4
:1007E3001173852C99121167C217301C5B855E3714
:1007F300855D36855E2F1211FB852F5E855D2F1279
:1008030011FB852F5DE55EC454F0F55E535D0F4526
:100813005DF550E533B43004E5268002E5329000FF
:100823002693F5B1E550F4F5B2E52EB43118759978
:100833002312117375995E1211738537991211730F
:09084300853699121167C21C22CE
:100618002019030207327426F599121173E540F583
:1006280099121173E543F599121173E544F599127E
:100638001173E545F599121173E548F5991211738F
:10064800E54AF599121173E54BF599121173E54DC9
:10065800F599121173E54FF599121173E555F5994E
:10066800121173E556F599121173E558F59912119F
:1006780073E559F599121173E55AF599121173E555
:100688005BF599121173E53FF599121173E542F57F
:1006980099121173E547F599121173E535F5991219
:1006A8001173E4F599121173F599121173E56EF54A
:1006B80099121173E56DF599121173E565F59912A3
:1006C8001173E560F599121173E52DF599121173FF
:1006D800E52CF599121173E56CF599121173E56B18
:1006E800F599121173E537F599121173E536F599F5
:1006F800121173E553F599121173E551F599121119
:1007080073E4F599121173F599121173740DF59933
:10071800121173740AF599121173E52EB431091286
:0B0728001179759926121167C2192281
:100A3400201003020B21E549B441068540571200FA
:100A440003E549B44206854357120003E549B4431C
:100A540006854457120003E549B4440685455712F8
:100A64000003E549B44506854857120003E549B437
:100A74004606854A57120003E549B44706854B5795
:100A8400120003E549B44806854D57120003E549B1
:100A9400B44906854F57120003E549B44A06855503
:100AA40057120003E549B44B06855657120003E577
:100AB40049B44C06855857120003E549B44D0685E0
:100AC4005957120003E549B44E06855A57120003DC
:100AD400E549B44F06855B57120003E549B4500657
:100AE400853F57120003E549B45106854257120069
:100AF40003E549B45206854757120003E549B45348
:100B040006853557120003E52EB4310F121179759D
:0E0B14009924121173854999121167C210229B
:1000030075992412117385499912117385579912A1
:0E001300117375990D12117375990A0211730C
:100BF50030112E75992312117375995A1211738537
:100C05002D99121173852C99121167C211E52EB415
:100C1500310F12117975992312117375995A1211A1
:100C250067301E2E75992312117375995C12117315
:100C3500856C99121173856B99121167C21EE52E89
:100C4500B4310F12117975992312117375995C12CC
:100C5500116730132E75992312117375995E121150
:100C650073853799121173853699121167C213E589
:100C75002EB4310F12117975992312117375995E7E
:100C850012116730162E759923121173759960121A
:100C95001173855399121173855199121167C216F3
:100CA500E52EB4310F12117975996012117375998A
:050CB5005E1211672230
:100D5F0030123E7425F5991211737430F5991211F2
:100D6F0073F599121173E52EF599121173740DF530
:100D7F0099121173740AF599121173C212E52EB4F8
:100D8F00310F12117975992512117375993012114E
:100D9F0067301B2E759925121173759931121173C6
:100DAF00759930121173855C99121167C21BE52E6C
:100DBF00B4310F121179759925121173759931127A
:100DCF00116730142E7599251211737599321211FE
:100DDF0073759930121173853399121167C214E527
:100DEF002EB4310F1211797599251211737599322D
:040DFF001211672244
:030023000204D301
:0D04D300C0E0C0D075D000C001C006C00759
:1004E000209902C29920980302060DAE99C298EE97
:1004F00024DD602E24FE70030205A014601C24FE7F
:1005000070030205F82404600302060D12125085E0
:10051000994912124DD21002060D12124DD2190233
:10052000060D121250AF99BF5A1B121250A999B959
:100530000D08121250D21102060D85994E1212505A
:1005400085994CD217BF5C1B121250A999B90D089E
:10055000121250D21E02060D859931121250859941
:1005600030D21ABF5E1B121250A999B90D0812128F
:1005700050D21302060D85995E12125085995DD2F4
:100580001CBF601A121250A999B90D07121250D24D
:1005900016807A85997012125085996FD2188067EB
:1005A000121250AF99BF3018121250859908E50801
:1005B000B40D07121250D212805312125085992E88
:1005C000BF3118121250859908E508B40D071212B0
:1005D00050D21B803812125085995CBF321812120B
:1005E00050859908E508B40D07121250D214801DE9
:1005F000121250859933800F121250AF99BF5602D4
:0D060000D21DBF5802D21F1212501212500C
:0B060D00D007D006D001D0D0D0E032E2
:03000000020EA14C
:0C0EA100787FE4F6D8FD758170020EE841
:1011C300EB9FF5F0EA9E42F0E99D42F0E89C45F082
:0111D30022F9
:1011D400E8600FECC313FCED13FDEE13FEEF13FFF9
:0311E400D8F1221D
:100EAD00020FB5E493A3F8E493A34003F68001F297
:100EBD0008DFF48029E493A3F85407240CC8C33346
:100ECD00C4540F4420C8834004F456800146F6DF15
:100EDD00E4800B0102040810204080900CBAE47EDF
:100EED00019360BCA3FF543F30E509541FFEE4930A
:100EFD00A360010ECF54C025E060A840B8E493A3D1
:100F0D00FAE493A3F8E493A3C8C582C8CAC583CAFB
:100F1D00F0A3C8C582C8CAC583CADFE9DEE780BEB3
:010D5E000094
:00000001FF
