:10002600FFFDFBF9F7F5F3F1EFEDEBE9E7E5E3E1CA
:10003600DFDDDBD9D7D5D3D1CFCDCBC9C7C5C3C1BA
:10004600BFBDBBB9B7B5B3B1AFADABA9A7A5A3A1AA
:100056009F9D9B99979593918F8D8B89878583819A
:100066007F7D7B79777573716F6D6B69676563618A
:100076005F5D5B59575553514F4D4B49474543417A
:100086003F3D3B39373533312F2D2B29272523216A
:100096001F1D1B19171513110F0D0B09070503015A
:1000A600FBFAF9F8F7F5F3F1EFEDEBE9E7E5E3E154
:1000B600DFDDDBD9D7D5D3D1CFCDCBC9C7C5C3C13A
:1000C600BFBDBBB9B7B5B3B1AFADABA9A7A5A3A12A
:1000D6009F9D9B99979593918F8D8B89878583811A
:1000E6007F7D7B79777573716F6D6B69676563610A
:1000F6005F5D5B59575553514F4D4B4947454341FA
:100106003F3D3B39373533312F2D2B2927252321E9
:100116001F1E1D1C1B1A1918171615141312111061
:1001260004000408041004180420042804300438C9
:1001360004400448045004580460046804700478B9
:10014600048004880490049804A004A804B004B8A9
:1001560004C004C804D004D804E004E804F004F899
:100166000500050805100518052005280530053881
:100176000540054805500558056005680570057871
:10018600058005880590059805A005A805B005B861
:1001960005C005C805D005D805E005E805F005F851
:1001A6000600060806100618062006280630063839
:1001B6000640064806500658066006680670067829
:1001C600068006880690069806A006A806B006B819
:1001D60006C006C806D006D806E006E806F006F809
:1001E60007000708071007180720072807300738F1
:1001F60007400748075007580760076807700778E1
:10020600078007880790079807A007A807B007B8D0
:1002160007C007C807D007D807E007E807F007F8C0
:1002260008000808081008180820082808300838A8
:100236000840084808500858086008680870087898
:10024600088008880890089808A008A808B008B888
:1002560008C008C808D008D808E008E808F008F878
:100266000900090809100918092009280930093860
:100276000940094809500958096009680970097850
:10028600098009880990099809A009A809B009B840
:1002960009C009C809D009D809E009E809F009F830
:1002A6000A000A080A100A180A200A280A300A3818
:1002B6000A400A480A500A580A600A680A700A7808
:1002C6000A800A880A900A980AA00AA80AB00AB8F8
:1002D6000AC00AC80AD00AD80AE00AE80AF00AF8E8
:1002E6000B000B080B100B180B200B280B300B38D0
:1002F6000B400B480B500B580B600B680B700B78C0
:100306000B800B880B900B980BA00BA80BB00BB8AF
:100316000BC00BC80BD00BD80BE00BE80BF00BF89F
:1003260000172737475767778797A7B7C7D7E7FFD6
:100DBC00C115C119C11CC11AC117C118C110C11F5D
:100DCC00C11DC111C11EC113C116C112C11BC11459
:100DDC0004617589022D013130013035015E30011D
:100DEC005D3001783701774601653001603001765E
:100DFC0030017530012D30012C3001743001733508
:100E0C00013730013630015337015146013A300178
:100E1C003930012E30015C30013331014030014357
:100E2C0030014430014530014830014A30014B302B
:100E3C00014D30014F300155300156300158300111
:100E4C005930015A30015B30013F300142300147CB
:040E5C0030013530FC
:100CF9001212B41212FC1212EC759F07D2B5C2B5CA
:100D0900D21512120DE4F590C2A2788204F2E4F52C
:100D19006DF56CF56BF56AF52AF569F568F567F512
:100D290066D21A12059612102F12047B12102F1276
:100D3900099412102F12111A12102F120F051210E6
:100D49002F1207AC12102F120B6112102F1208A0CC
:100D590012102F12117512102F1211C112102F1209
:100D69000C3412102F120E6112102F1210B712101C
:100D79002FE5692401F569E43568F568E43567F517
:100D890067E43566F566E47F64FEFDFCAB69AA6835
:100D9900A967A866C3120B5070891206AFE4F56DF6
:100DA900F56CF56BF56AF52AF569F568F567F56689
:030DB900020D2CFC
:04126A007F647E001F
:10126E00E4FDFCD3ED9FEC9E5017E4FBFA0BBB00A4
:10127E00010AE4B503F7EAB401F30DBD00010C80D9
:01128E00E27D
:01128F00223C
:1012B400759840759E84759D01D29CD2ACD2AFC204
:0412C40098C2992211
:1012EC0075AE5F75B3FF75B4FF75B1FF75B2FF22B4
:1012FC0075EF8075FDFFE4F5F9F5FAF5FBF5FC22C9
:10120D00301532E4F53275B1FF75B2FFF5F975FBA6
:10121D0087788074FFF2087407F2C2B2C2B4D2B4F8
:10122D00D2B27802E2F56E08E2F56F08E2F57008C9
:06123D00E2F571C215226A
:10111A00301A5785317485307385312F1212C8857C
:10112A002F3185302F1212C8852F30E531C454F083
:10113A00F53153300F4530F52890032693F5FBE53A
:10114A002EB4312475992312126475995C121264B3
:10115A0085749912126485739912126475990D1225
:0B116A00126475990A121264C21A2266
:10102F002018030210B685785385775185782F12D3
:10103F0012C8852F7885772F1212C8852F77E578FC
:10104F00C454F0F57853770F4577F55F75F002A428
:10105F002426F582E5F03401F583E493F524740139
:10106F0093F525F546E524540FF5387880E546F2DB
:10107F0008E538F2C2B2C2B4D2B4D2B2E52EB4315E
:10108F00247599231212647599601212648553990D
:10109F0012126485519912126475990D12126475AA
:0810AF00990A121264C2182212
:100F05007835E2F5206552604B852052E552C45490
:100F15000FF565E552540FF5608565341212DA85D3
:100F250034658560341212DA853460E55CB43024AA
:100F3500759928121264759958121264856599126B
:100F4500126485609912126475990D12126475996F
:100F55000A121264301F4675992812126475995841
:100F6500121264856599121264856099121264756E
:100F7500990D12126475990A121264C21FE52EB4F6
:100F8500311B12126A75992812126475995812123A
:0E0F95006475990D12126475990A1212642285
:10129000E55CB4301E75992412126485729912129D
:1012A0006485279912126475990D12126475990A52
:0412B0001212642290
:1007AC00E4FFFE7830E2F5206320FF8520210FBFA7
:1007BC0000010EEF64094E70EAE520653B70030200
:1007CC00089FE53B6220E520600385213B30001E3D
:1007DC0030080C757241752731754031121290201A
:1007EC00080C75724175273075403012129030012B
:1007FC001E30090C757242752731754331121290F7
:10080C0020090C75724275273075433012129030E6
:10081C00021E300A0C757243752731754431121261
:10082C0090200A0C75724375273075443012129063
:10083C0030031E300B0C757244752731754531121F
:10084C001290200B0C7572447527307545301212BE
:10085C009030041E300C0C7572457527317548317B
:10086C00121290200C0C7572457527307548301299
:10087C00129030051E300D0C757246752731754A75
:10088C0031121290200D0C757246752730754A3056
:03089C00121290A5
:01089F002236
:100B6100E4FFFE7831E2F5206320FF8520210FBFED
:100B710000010EEF64094E70EAE520653C70030246
:100B81000C33E53C6220E520600385213C30001EEA
:100B910030080C757247752731754B311212902050
:100BA100080C757247752730754B30121290300161
:100BB1001E30090C757248752731754D311212902E
:100BC10020090C757248752730754D30121290301E
:100BD100021E300A0C757249752731754F31121298
:100BE10090200A0C757249752730754F301212909A
:100BF10030031E300B0C75724A7527317555311251
:100C01001290200B0C75724A7527307555301212EF
:100C11009030041E300C0C75724B752731755631AE
:100C2100121290200C0C75724B75273075563012CC
:020C310012901F
:010C3300229E
:1008A000E4FFFE7832E2F5206320FF8520210FBFB0
:1008B00000010EEF64094E70EAE520653D70030209
:1008C0000993E53D6220E520600385213D30001E4F
:1008D00030080C75724C7527317558311212902002
:1008E000080C75724C752730755830121290300113
:1008F0001E30090C75724D752731755931121290E1
:1009000020090C75724D75273075593012129030D0
:10091000021E300A0C75724E752731755A3112124B
:1009200090200A0C75724E752730755A301212904D
:1009300030031E300B0C75724F752731755B311209
:100940001290200B0C75724F752730755B301212A8
:100950009030041E300C0C757250752731753F3184
:10096000121290200C0C757250752730753F3012A2
:10097000129030051E300D0C75725175273175427D
:1009800031121290200D0C7572517527307542305E
:03099000121290B0
:010993002241
:10117500E4FFFE7833E2F5206320FF8520210FBFD1
:1011850000010EEF64094E70EAE520653E602CE52E
:101195003E6220E520600385213E30001E30080CAC
:1011A50075725275273175473112129020080C75EA
:0B11B5007252752730754730121290FF
:0111C000220C
:1011C100E4FFFE7834E2F5206320FF8520210FBF84
:1011D10000010EEF64094E70EAE5206541602CE5DF
:1011E100416220E520600385214130001E30080C5A
:1011F10075725375273175353112129020080C75AF
:0B1201007253752730753530121290C3
:01120C0022BF
:10124300759928121264759956121264857699124B
:10125300126485759912126475990D121264759949
:011263000A80
:061264003099FDC2992241
:03131A0012131D8E
:06131D003098FDC2982289
:1012C800E52FC39441500474D0800274C9252FF5CA
:0212D8002F22C3
:1012DA00E534C3940A50047430800274372534F517
:0212EA003422AC
:09130C001213151213151213152A
:05131500D2A0C2A022DD
:1010B700D2A0D2A1C2A130A3FD12130CE4F52012D5
:1010C7001315A2A39207121315A2A39206121315C2
:1010D700A2A39205121315A2A39204121315A2A399
:1010E7009203121315A2A39202121315A2A392013F
:1010F700121315A2A3920012130CFCFDFEE56D2539
:1011070020F56DEE356CF56CED356BF56BEC356AEE
:03111700F56A2254
:1006AF00AF6DAE6CAD6BAC6AE47B64FAF9F8120A0D
:1006BF00BE8F6D8E6C8D6B8C6A8F20852029E529FE
:1006CF006526700302078F852921C3E5219526F53D
:1006DF0021200F02F52A300F086321FF0521852104
:1006EF002AE52AD39401500302078FE53364307053
:1006FF0065E52978827003F280037401F2E529C35E
:10070F009480500FC2A2E52990002693F5B1E550D1
:10071F00F4F5B2E526C394805026E529947F402056
:10072F007882E4F2E52990002693F5B1E550F4F5CF
:10073F00B27F197E0012126ED2A212126E7401F2E3
:10074F00E520D3947F400FD2A2E52990002693F5A0
:10075F00B1E550F4F5B2E529C4540FF576E5295407
:10076F000FF5758576341212DA8534768575341265
:10077F0012DA853475E55CB43003121243852926ED
:10078F00301D19121243C21DE52EB4310F12126A19
:0D079F00759928121264759956121258228D
:10059600E5336431600302065020170302065085D6
:1005A6004E2D854C2C854E2F1212C8852F4E854C0C
:1005B6002F1212C8852F4CE54EC454F0F54E534CFD
:1005C6000F454CF53278827003F280037401F2E530
:1005D60032C39480500FC2A2E53290002693F5B143
:1005E600E550F4F5B2E554C394805026E532947F85
:1005F60040207882E4F2E53290002693F5B1E5508A
:10060600F4F5B27F197E0012126ED2A212126E7427
:1006160001F2E532D3947F400FD2A2E53290002654
:1006260093F5B1E550F4F5B2853254E52EB43118A0
:1006360075992312126475995A121264852D9912AE
:100646001264852C99121258C217301C5B855E37CE
:10065600855D36855E2F1212C8852F5E855D2F1249
:1006660012C8852F5DE55EC454F0F55E535D0F45F7
:100676005DF550E533B43004E5268002E53290009E
:100686002693F5B1E550F4F5B2E52EB43118759917
:100696002312126475995E121264853799121264D8
:0906A600853699121258C21C227B
:10047B002019030205957426F599121264E540F5CF
:10048B0099121264E543F599121264E544F5991239
:10049B001264E545F599121264E548F59912126458
:1004AB00E54AF599121264E54BF599121264E54D84
:1004BB00F599121264E54FF599121264E555F59909
:1004CB00121264E556F599121264E558F599121259
:1004DB0064E559F599121264E55AF599121264E51F
:1004EB005BF599121264E53FF599121264E542F53A
:1004FB0099121264E547F599121264E535F59912D4
:10050B001264E4F599121264F599121264E576F50A
:10051B0099121264E575F599121264E565F5991255
:10052B001264E560F599121264E52DF599121264C7
:10053B00E52CF599121264E574F599121264E573C2
:10054B00F599121264E537F599121264E536F599AF
:10055B00121264E553F599121264E551F5991212D2
:10056B0064E4F599121264F599121264740DF599FD
:10057B00121264740AF599121264E52EB431091241
:0B058B00126A759926121258C219223C
:10099400201003020A81E549B4410685405712003C
:1009A40003E549B44206854357120003E549B443BD
:1009B40006854457120003E549B444068545571299
:1009C4000003E549B44506854857120003E549B4D8
:1009D4004606854A57120003E549B44706854B5736
:1009E400120003E549B44806854D57120003E54952
:1009F400B44906854F57120003E549B44A068555A4
:100A040057120003E549B44B06855657120003E517
:100A140049B44C06855857120003E549B44D068580
:100A24005957120003E549B44E06855A571200037C
:100A3400E549B44F06855B57120003E549B45006F7
:100A4400853F57120003E549B45106854257120009
:100A540003E549B45206854757120003E549B453E8
:100A640006853557120003E52EB4310F12126A754C
:0E0A74009924121264854999121258C2102258
:1000030075992412126485499912126485579912BD
:0E001300126475990D12126475990A02126436
:100C340030112E75992312126475995A1212648513
:100C44002D99121264852C99121258C211E52EB4F2
:100C5400310F12126A75992312126475995A12127D
:100C640058301E2E75992312126475995C12126401
:100C7400857499121264857399121258C21EE52E56
:100C8400B4310F12126A75992312126475995C12A9
:100C9400125830132E75992312126475995E12122C
:100CA40064853799121264853699121258C213E575
:100CB4002EB4310F12126A75992312126475995E5B
:100CC40012125830162E75992312126475996012F7
:100CD4001264855399121264855199121258C216DE
:100CE400E52EB4310F12126A759960121264759967
:050CF4005E12125822FF
:100E610030123E7425F5991212647430F5991212FC
:100E710064F599121264E52EF599121264740DF558
:100E810099121264740AF599121264C212E52EB411
:100E9100310F12126A759925121264759930121266
:100EA10058301B2E759925121264759931121264EE
:100EB100759930121264855C99121258C21BE52E85
:100EC100B4310F12126A7599251212647599311293
:100ED100125830142E759925121264759932121216
:100EE10064759930121264853399121258C214E54F
:100EF1002EB4310F12126A75992512126475993246
:040F0100121258224E
:030023000203369F
:0D033600C0E0C0D075D000C001C006C007F7
:10034300209902C299209803020470AE99C298EED4
:1003530024DD602E24FE700302040314601C24FEBB
:10036300700302045B2404600302047012131D85EE
:10037300994912131AD21002047012131AD21902D5
:10038300047012131DAF99BF5A1B12131DA999B9FB
:100393000D0812131DD21102047085994E12131DFC
:1003A30085994CD217BF5C1B12131DA999B90D086F
:1003B30012131DD21E02047085993112131D8599E3
:1003C30030D21ABF5E1B12131DA999B90D0812135F
:1003D3001DD21302047085995E12131D85995DD297
:1003E3001CBF601A12131DA999B90D0712131DD250
:1003F30016807A85997812131D859977D2188067AC
:1004030012131DAF99BF301812131D859908E50803
:10041300B40D0712131DD212805312131D85992E8A
:10042300BF311812131D859908E508B40D0712137F
:100433001DD21B803812131D85995CBF321812130D
:100443001D859908E508B40D0712131DD214801DEC
:1004530012131D859933800F12131DAF99BF5602D6
:0D046300D21DBF5802D21F12131D12131D0F
:0B047000D007D006D001D0D0D0E03281
:03000000020FA349
:0C0FA300787FE4F6D8FD758178020FEA33
:100A820075F008758200EF2FFFEE33FECD33CDCC2B
:100A920033CCC58233C5829BED9AEC99E5829840AE
:100AA2000CF582EE9BFEED9AFDEC99FC0FD5F0D68B
:100AB200E4CEFBE4CDFAE4CCF9A88222B800C1B9B5
:100AC2000059BA002DEC8BF084CFCECDFCE5F0CBF3
:100AD200F97818EF2FFFEE33FEED33FDEC33FCEB2C
:100AE20033FB10D703994004EB99FB0FD8E5E4F9E7
:100AF200FA227818EF2FFFEE33FEED33FDEC33FCD4
:100B0200C933C910D7059BE99A4007EC9BFCE99AC7
:100B1200F90FD8E0E4C9FAE4CCFB2275F010EF2F0C
:100B2200FFEE33FEED33FDCC33CCC833C810D7070C
:100B32009BEC9AE899400AED9BFDEC9AFCE899F847
:0E0B42000FD5F0DAE4CDFBE4CCFAE4C8F922DA
:100B5000EB9FF5F0EA9E42F0E99D42F0E89C45F0FB
:010B60002272
:100FAF00020CF9E493A3F8E493A34003F68001F253
:100FBF0008DFF48029E493A3F85407240CC8C33343
:100FCF00C4540F4420C8834004F456800146F6DF12
:100FDF00E4800B0102040810204080900DBCE47ED9
:100FEF00019360BCA3FF543F30E509541FFEE49307
:100FFF00A360010ECF54C025E060A840B8E493A3CE
:10100F00FAE493A3F8E493A3C8C582C8CAC583CAF8
:10101F00F0A3C8C582C8CAC583CADFE9DEE780BEB0
:010E60000091
:00000001FF
